:020000040000fa
:080000000002040000000000f2
:020000040000fa
:040008007004000080
:020000040000fa
:04000c00700400007c
:020000040000fa
:040010007004000078
:020000040000fa
:040014007004000074
:020000040000fa
:040018007004000070
:020000040000fa
:04001c00700400006c
:020000040000fa
:040020007004000068
:020000040000fa
:040024007004000064
:020000040000fa
:040028007004000060
:020000040000fa
:04002c00700400005c
:020000040000fa
:040030007004000058
:020000040000fa
:040034007004000054
:020000040000fa
:040038007004000050
:020000040000fa
:04003c00700400004c
:020000040000fa
:040040007004000048
:020000040000fa
:040044000c030000a9
:020000040000fa
:040048007004000040
:020000040000fa
:04004c00700400003c
:020000040000fa
:040050007004000038
:020000040000fa
:040054007004000034
:020000040000fa
:040058007004000030
:020000040000fa
:04005c00320300006b
:020000040000fa
:040060007004000028
:020000040000fa
:040064007004000024
:020000040000fa
:040068007004000020
:020000040000fa
:04006c00700400001c
:020000040000fa
:040070007004000018
:020000040000fa
:040074007004000014
:020000040000fa
:040078007004000010
:020000040000fa
:04007c00700400000c
:020000040000fa
:040080007004000008
:020000040000fa
:040084007004000004
:020000040000fa
:040088007004000000
:020000040000fa
:04008c0070040000fc
:020000040000fa
:0400900070040000f8
:020000040000fa
:0400940070040000f4
:020000040000fa
:0400980070040000f0
:020000040000fa
:04009c0070040000ec
:020000040000fa
:0400a00070040000e8
:020000040000fa
:0400a40070040000e4
:020000040000fa
:0400a80070040000e0
:020000040000fa
:0400ac0070040000dc
:020000040000fa
:0400b00070040000d8
:020000040000fa
:0400b40070040000d4
:020000040000fa
:0400b80070040000d0
:020000040000fa
:0400bc0070040000cc
:020000040000fa
:0400c00070040000c8
:020000040000fa
:0400c40070040000c4
:020000040000fa
:0400c80070040000c0
:020000040000fa
:0400cc0070040000bc
:020000040000fa
:0400d00070040000b8
:020000040000fa
:0400d40070040000b4
:020000040000fa
:0400d80070040000b0
:020000040000fa
:0400dc0070040000ac
:020000040000fa
:0400e00070040000a8
:020000040000fa
:0400e40070040000a4
:020000040000fa
:0400e80070040000a0
:020000040000fa
:0400ec00700400009c
:020000040000fa
:0400f0007004000098
:020000040000fa
:0400f4007004000094
:020000040000fa
:0400f8007004000090
:020000040000fa
:0400fc00700400008c
:020000040000fa
:040100007004000087
:020000040000fa
:040104007004000083
:020000040000fa
:04010800700400007f
:020000040000fa
:04010c00700400007b
:020000040000fa
:040110007004000077
:020000040000fa
:040114007004000073
:020000040000fa
:04011800700400006f
:020000040000fa
:04011c00700400006b
:020000040000fa
:040120007004000067
:020000040000fa
:040124007004000063
:020000040000fa
:04012800700400005f
:020000040000fa
:04012c00700400005b
:020000040000fa
:040130007004000057
:020000040000fa
:040134007004000053
:020000040000fa
:04013800700400004f
:020000040000fa
:04013c00700400004b
:020000040000fa
:040140007004000047
:020000040000fa
:040144007004000043
:020000040000fa
:04014800700400003f
:020000040000fa
:04020800700400007e
:020000040000fa
:04020c00700400007a
:020000040000fa
:040210007004000076
:020000040000fa
:040214007004000072
:020000040000fa
:04021800700400006e
:020000040000fa
:04021c00700400006a
:020000040000fa
:040220007004000066
:020000040000fa
:040224007004000062
:020000040000fa
:04022800700400005e
:020000040000fa
:04022c00700400005a
:020000040000fa
:040230007004000056
:020000040000fa
:040234007004000052
:020000040000fa
:04023800700400004e
:020000040000fa
:04023c00700400004a
:020000040000fa
:040240007004000046
:020000040000fa
:040244000c030000a7
:020000040000fa
:04024800700400003e
:020000040000fa
:04024c00700400003a
:020000040000fa
:040250007004000036
:020000040000fa
:040254007004000032
:020000040000fa
:04025800700400002e
:020000040000fa
:04025c003203000069
:020000040000fa
:040260007004000026
:020000040000fa
:040264007004000022
:020000040000fa
:04026800700400001e
:020000040000fa
:04026c00700400001a
:020000040000fa
:040270007004000016
:020000040000fa
:040274007004000012
:020000040000fa
:04027800700400000e
:020000040000fa
:04027c00700400000a
:020000040000fa
:040280007004000006
:020000040000fa
:040284007004000002
:020000040000fa
:0402880070040000fe
:020000040000fa
:04028c0070040000fa
:020000040000fa
:0402900070040000f6
:020000040000fa
:0402940070040000f2
:020000040000fa
:0402980070040000ee
:020000040000fa
:04029c0070040000ea
:020000040000fa
:0402a00070040000e6
:020000040000fa
:0402a40070040000e2
:020000040000fa
:0402a80070040000de
:020000040000fa
:0402ac0070040000da
:020000040000fa
:0402b00070040000d6
:020000040000fa
:0402b40070040000d2
:020000040000fa
:0402b80070040000ce
:020000040000fa
:0402bc0070040000ca
:020000040000fa
:0402c00070040000c6
:020000040000fa
:0402c40070040000c2
:020000040000fa
:0402c80070040000be
:020000040000fa
:0402cc0070040000ba
:020000040000fa
:0402d00070040000b6
:020000040000fa
:0402d40070040000b2
:020000040000fa
:0402d80070040000ae
:020000040000fa
:0402dc0070040000aa
:020000040000fa
:0402e00070040000a6
:020000040000fa
:0402e40070040000a2
:020000040000fa
:0402e800700400009e
:020000040000fa
:0402ec00700400009a
:020000040000fa
:0402f0007004000096
:020000040000fa
:0402f4007004000092
:020000040000fa
:0402f800700400008e
:020000040000fa
:0402fc00700400008a
:020000040000fa
:040300007004000085
:020000040000fa
:040304007004000081
:020000040000fa
:04030800700400007d
:020000040000fa
:04030c007004000079
:020000040000fa
:040310007004000075
:020000040000fa
:040314007004000071
:020000040000fa
:04031800700400006d
:020000040000fa
:04031c007004000069
:020000040000fa
:040320007004000065
:020000040000fa
:040324007004000061
:020000040000fa
:04032800700400005d
:020000040000fa
:04032c007004000059
:020000040000fa
:040330007004000055
:020000040000fa
:040334007004000051
:020000040000fa
:04033800700400004d
:020000040000fa
:04033c007004000049
:020000040000fa
:040340007004000045
:020000040000fa
:040344007004000041
:020000040000fa
:04034800700400003d
:020000040000fa
:100400008f9520000e7f22000e0188000000000062
:10041000000020000000e000020032000001200087
:10042000200288000e00070020ee220001002000bc
:10043000810f700001003200220007000000200040
:100440000000e00002003200000002000000000096
:10045000442c0200000000000040da000000fe0012
:100460004440a900801e20000000e000030032008c
:1004700000002000a00188004440a8000000060001
:10048000f03fb1000180b10006003500ee03090025
:1004900000000000403fb1000180b100fbff3d00c3
:1004a0001000b000203fb0000200350000800900bd
:1004b00000000000000006008a1f78008b1f7800f3
:1004c0000000060091018800800478000000eb0025
:1004d0001a003700e284440032a0b4009905ba0043
:1004e000e284440032a0b4009906ba00e2844400d9
:1004f00032a0b4000006eb00476fde00fd07b2003b
:10050000636ce10003003a00ebff07000000eb0022
:100510000a003700606ce10004003a00005deb0067
:100520008b05e900fdff3e00040037006168e10033
:10053000010032000086eb000b00070019c7ba006b
:100540001905ba000e04e00003003a000a00e000ba
:10055000e0ff3a0000000600fe07b2009e0188009e
:100560008a047800f5ff3700395dba008b05e90091
:100570000c003200295dba008b05e900080032004a
:100580000c00e00003003a00e284440032a0b40012
:10059000f5ff370019ddba008b05e900faff3a00d4
:1005a0008904e800e184440032a0b40000000600a1
:1005b000000000000000000000000000000000003b
:1005c000000000000000000000000000000000002b
:1005d000000000000000000000000000000000001b
:1005e000000000000000000000000000000000000b
:1005f00000000000000000000000000000000000fb
:1006000000000000000000000000000000000000ea
:100610000000000000000000809fbe003400f800d1
:1006200000002000a00188000000fa0013e1a800eb
:1006300084e0a900511680000000240000806000c2
:100640000000e00002003a00cdc2a800010037001f
:10065000cdc2a9000080fa003400f9004f00be00ae
:10066000004006003600f800809fbe00829fbe005a
:10067000849fbe00869fbe00881f78003400f8006b
:1006800000002000a00188000000fa0013e1a9008a
:100690000a21ef00cde2a900cda2a80085a0a90003
:1006a0005116800000002200008060000000e00081
:1006b00002003a00cda2a80001003700cda2a90097
:1006c000001880000040880000408000cf00de005d
:1006d000008040000080d100cf80de00430707008b
:1006e000d0408800e1408800d0428000e142800094
:1006f0005040880061408800544080006540800080
:10070000d0408000e14080000001be000400be0037
:1007100039070700704088008140880094428000bb
:10072000a542800070408000814080000001be0032
:100730000400be008e0707000002be0010418000ca
:10074000214180000001be000400be002b0707000d
:1007500090408800a140880074408000854080005f
:1007600030418000414180000001be000400be0015
:10077000210707000002be00b0428000c142800095
:100780000001be000400be0079070700b0408800e9
:10079000c140880074428000854280007040800023
:1007a000814080000001be000400be007007070009
:1007b0000002be0090408000a14080000001be0009
:1007c0000400be000d0707000002be00b04080001c
:1007d000c14080000001be000400be000707070002
:1007e000f040880001418800f4408000054180000d
:1007f000f04280000143800018c0b3000001be0039
:100800000400be008e0707000000e00001003c006d
:100810000044eb000804e00005003200f0428000d4
:1008200001438000f040880001418800110037003a
:10083000f44080000541800030408000414080004d
:1008400018c0b3000001be000400be007e07070010
:100850000000e000010035000044eb000804e00067
:10086000040032003040800041408000f0408800a9
:1008700001418800f040800001418000020020001a
:10088000030a24003a0707007107070000007800f8
:10089000000c880090408000a1408000104188003a
:1008a00021418800704080008140800030418800f4
:1008b00041418800cda2a900cde2a8000080fa0045
:1008c0003400f9004f0478004f03be004f02be0011
:1008d0004f01be004f00be003600f9000040060088
:1008e0000040da000000fe00889fbe00800478000f
:1008f0000203be00010478006149b800898fd2006c
:100900008381d200080278000600be0004060700ba
:10091000088044004f04be0000000600881f7800d5
:100920000204780008017800130007000800400066
:100930004f047800000006000000fa00881f7800cd
:10094000000478006a825700bfb997000801780058
:1009500041472000e04820001d0007000000e000a3
:10096000020035008040eb00017478004f047800ed
:100970000080fa00000006008001780002003700c5
:10098000b15978000201e9000200e000fcff3a00e2
:1009900000000600889fbe00000478000203be002d
:1009a0008104780008027800890178001200200094
:1009b0000600be00c6000700890f5000010032008b
:1009c0000004eb00080078004f04be0000000600a1
:1009d0006800fa00889fbe008a9fbe0080047800ed
:1009e000010478008205780003057800840078000f
:1009f00000f92f000f00400021010700d98f9f0050
:100a0000fb8f9f000000eb00a09f9f00e88f9f00de
:100a10009a84fb000904fb008904ea00cf4cde0045
:100a200050022000800f54000d003200e18f54006e
:100a30000b003a00090178008a0078007f8897004f
:100a4000df89970003000100f08f9f000000e000a5
:100a5000950032002f9897000000e800a09f9f00ab
:100a60000905450050022000800f540004003200a8
:100a70000800e000e6ff3a002f9897008b0037004f
:100a80000000eb00809f9f00f0979f00e0979f0081
:100a9000d0979f00c0979f00b0979f000700370036
:100aa00021932000010050000000400061922000ce
:100ab00061007800cf98970001007000c09f9f00f0
:100ac0000a04780008057800ba4478008900fb0021
:100ad00020932000ec0007000000e000f0ff3a0047
:100ae000a1c2b30081cf54000e003a008f88970056
:100af0000180e900808f9f0010007800b09f9f0068
:100b00000000e00005003d000000ea00b09f9f00eb
:100b10004f9897000020a000c09f9f000804e800a5
:100b200010003700b09f9f00880078000000eb00a5
:100b300005003700f3ff2700830f5000020032004a
:100b40006a02b900040041000104780088007800be
:100b50003101fb000203b100e90f5100f5ff36003f
:100b6000b09f9f00e0c2b300984f10000200320017
:100b70000080eb0019003700a0c2b300d84f10006e
:100b800007003a008f8897000180e900808f9f005e
:100b900010007800909f9f000804e80010003700c4
:100ba0000000eb00909f9f00880078000500370050
:100bb000f3ff2700830f5000020032006a02b900e1
:100bc0000400410001047800880078003101fb0036
:100bd0000203b100e90f5100f5ff3600909f9f001e
:100be000984478008900fb00e0912000a6000700ef
:100bf0000000e000020032000804e80001003700b5
:100c00008044eb00a97f9f0080c6b30080cf5400d2
:100c100006003a0098cf140010003a0066405000d9
:100c2000a07f9f000804e8000c003700c0c6b30096
:100c300080cf540009003a0098cf140007003a0012
:100c400067404000d84f100002003a006e4050004c
:100c50000100370010c7b300a07f9f001801fb0000
:100c6000c3fb2f008f81410001f92f008f804000ce
:100c700020f92f000f0040008f0007000000e00067
:100c800009003a00c1fb2f008f80400020f92f009f
:100c90000f0040009a0107000000e000020035004c
:100ca0000805e8005aff37000080eb004f05be0042
:100cb0004f04be000080fa00000006000302780026
:100cc0008201780001017800a14c200040ff37002c
:100cd000e6874700889fbe008a9fbe008c9fbe00ab
:100ce0008e1f780082bf9f0004047800029ab9002a
:100cf000f4b79f000400e000590032000fb99700dc
:100d00000200e000570032000006be000407780031
:100d1000c800900068009000808f500004003900e7
:100d200008007800500207000000e0003b0035009a
:100d300000402000180060000a0032008e01780098
:100d4000a20020000c00be00120507000005be0036
:100d500000807500070032008c0455008904e8000b
:100d6000050037008e0478000a0020000b002000e8
:100d7000010037008e047800480190006800900060
:100d800002005000890f50000300310080047800f9
:100d90000a0020000b0020006111b800828fd200f1
:100da0008381d200090278000c00be00dc04070039
:100db00009075700480090000900400040049800cf
:100dc0000a85750004003200080078006d020700f3
:100dd0000000e00011003a000e00e0000f003200b9
:100de0006148b800808fd2008180d2000000780076
:100df00000f0a1008c01d0000001d000028641006b
:100e00004220a80081864e004200a9004220ae0088
:100e10004200a8000c86d300bdff370000802000f0
:100e20001800600002003200080078005502070038
:100e300000c020001800600002003200c8019000cd
:100e4000630498007fb097000e0750000fb9970019
:100e5000110009000287d8008001780001003700e6
:100e60008001eb00030078004f0778004f06be00ba
:100e70004f05be004f04be006f00b1000000060029
:100e80000108780000000600020037000304e000bb
:100e9000060032000001780002007800b0417800be
:100ea00081cf5100f9ff3a00010037000001eb004b
:100eb0000200780000000600889fbe008a9fbe00e6
:100ec000e4c6b300844f5100be00320010003c0065
:100ed0006b425200844f51001800320005003c0064
:100ee00054c2b300844f5100f600320084c5b300f1
:100ef0000f00370044c6b300844f51001400320085
:100f000065424200844f5100f1003a001000370062
:100f100004c7b300844f5100dd0032005600350095
:100f200065424200844f5100530032006342420048
:100f3000844f5100e6003a004f0037001181e9006c
:100f400082087800a008900012417800de00370087
:100f5000006a9000c5c6b300854f520007003a00f2
:100f60009102780064825200840878001402be0066
:100f70004fabde00860378001400370015c7b300be
:100f8000854f520003003a001104780068025400b3
:100f900005003700a5c6b300854f520006003a0091
:100fa0009104780068825400840878005403be00dd
:100fb0004402be00050037001182e9008408780071
:100fc00014027800cfa2de00612bb9000498be00a5
:100fd0000690be008068900088c6b30088cf50009d
:100fe0000d00320028c6b30088cf500004003a003c
:100ff0000402fb00cfa2de00612bb900080037001d
:1010000048c7b30088cf5000030032006644440054
:1010100088cf500004003a00cfa2de00612bb90057
:101020000498be000690be003002be002003be0041
:10103000a0089000e00f5200e08f5a00e00f5b0024
:10104000e08f5b0002003d00d4c2b300080037000f
:10105000301290000418a30002003200b4c2b300a2
:10106000030037000408a3005100320004c2b3009b
:1010700084f178004c003700006a9000c5c6b300c8
:10108000854f520008003a001105780064025500af
:10109000840878001404be006055b8000802be0041
:1010a0000a03be001400370015c7b300854f520075
:1010b00003003a009104780068825400050037006c
:1010c000a5c6b300854f520006003a00110578000e
:1010d00068025500840878005403be004402be0034
:1010e000050037001182e9008408780014027800b6
:1010f0008002eb006033b8000498be000690be008a
:101100008068900088c6b30088cf50000d00320080
:1011100028c6b30088cf500004003a000482fb00c8
:101120008002eb006033b8000800370048c7b30006
:1011300088cf5000030032006644440088cf50003e
:1011400004003a008002eb006033b8000498be004f
:101150000690be00b01090000138a30014003200c9
:101160003002be002003be00e00f5200e08f5a00a4
:10117000e00f5b00e08f5b000d00320081c7b30021
:10118000814f51000300320081c5b300814f5100ef
:1011900007003a00a008900004c3b30084f178006f
:1011a0008100e80082f178008100e80021089800c1
:1011b000a00890008181410073009800824078006f
:1011c0003e00370080699000c4c6b3001181e90079
:1011d00084cf5100220032000a003c0064425200d9
:1011e00084cf51002500320004c2e80084cf5100b2
:1011f000130032006842520084cf51001e003a00b2
:101200000a00370044c7b30084cf51001b003200ee
:101210006642420084cf51001800320069425200f9
:1012200084cf510014003a0005003700820878008e
:101230009200780020609000804878002c003700f1
:10124000820878009200780010129000cfa2de0091
:10125000612bb9008498be008690be002400370040
:10126000820878009200780010119000cf91de0083
:101270008288be001e0037001181e90082087800d4
:101280009200780010109000800878001800370055
:101290001181e9008208780012027800cfa2de00f6
:1012a000612bb9000498be000690be00a008900013
:1012b000818141007300980081c7b3006c01070071
:1012c0000b003700a008900082f17800060037007c
:1012d000a0089000818141000204e00001003a0072
:1012e00052c2b300824978008100e80021089800ca
:1012f0000000eb004f05be004f04be0000000600da
:101300000400fa00889fbe008a9fbe008c1f7800f0
:101310000004780001067800a814900028089000c6
:10132000808454003808900080845400480890005d
:10133000808454005808900080845400680890000d
:1013400080845400780890008084540000022200b9
:1013500090bf9f0000032300a0bf9f0038109000a3
:101360000028a30015003a000900e0001300340033
:10137000090578008a057800e20f55000100360063
:101380002b002000c80190000b017800ee80570070
:101390006800900003000100600498000000e00075
:1013a000aa003200181090000b00400010149800a2
:1013b0000b0555004240a900eeff3c0028099000b3
:1013c0000200e0000c003400c80190008c0078009e
:1013d0006800900003000100600498008080eb002a
:1013e0000000e0009a003200981090002808900059
:1013f0000080400010149800380d90000a00e000b2
:10140000110034008a057800e20f55000100360013
:101410002b002000c80190000b017800ec805700e1
:101420006800900003000100600498000000e000e4
:1014300086003200181090000b0040001014980035
:101440000b055500edff370008699000c8089000b3
:1014500050c6b300804f510008003a000100e00080
:101460001500340058029000080990009809900077
:101470006800900004000100070037000100e00050
:101480000d003400c801900001017800f8009000c0
:101490006800900003000100600498008080eb0069
:1014a0000000e0006a0032009810900048089000a8
:1014b0000080400010149800580d90000a00e000d1
:1014c000110034008a057800e20f55000100360053
:1014d0002b002000c80190000b017800ec80570021
:1014e0006800900003000100600498000000e00024
:1014f00056003200181090000b00400010149800a5
:101500000b055500edff3700086990006808900052
:1015100051c6b300814f51000d003a000000e000b9
:101520001c00340078019000c808900001014100bf
:101530006111b800828fd2008381d20058029000de
:101540008000780068009000040001000900370066
:101550000000e0000f00340078019000c8089000ff
:1015600081004100c80190000001780068009000ef
:1015700003000100600498008080eb000000e000a0
:1015800033003200981090006808900000804000fe
:1015900010149800780d90000a00e000110034004b
:1015a0008a057800e20f5500010036002b0020006c
:1015b000c80190000b017800ec8057006800900093
:1015c00003000100600498000000e0001f003200ea
:1015d000181090000b004000101498000b055500e7
:1015e000edff3700381090008000eb000028a300ca
:1015f000170032000900e0001500340009057800ea
:10160000e28f5400010036002a002000c80190003b
:101610000a017800ee805700680090000300010086
:10162000600498000000e0000800320018109000ec
:101630000a004000101498008a8454004240a90017
:10164000eeff3c008000eb00010037008080eb00e3
:10165000010078004f0678004f05be004f04be0021
:101660000080fa0000000600889fbe008a1f7800f4
:1016700000047800c8009000680190000000eb00b2
:10168000828f50003c0039001800780022002900a9
:1016900002016000e20f510007003200012020002b
:1016a0000000e0000100350001202400008c7000e3
:1016b0000080eb00300037000200260002006000ce
:1016c000820f500009003a0038009000808f5000cf
:1016d00006003900080078002a0007008000780022
:1016e0000080eb000100e00023003a0018057800bc
:1016f00000c020000000650018003a00a804900017
:101700006002200008004000808f540013003a005f
:1017100000202000b8010700200498000000e0002d
:1017200005003a0029049800490498008904e8005b
:1017300039049800080037000a60a0000a0c7800fd
:10174000400498000120200080804000310498006f
:10175000400c9800500c9800d3010700280090001e
:1017600050049800380090006004980000002600a3
:10177000180c70000000eb004f0578004f04be000d
:1017800000000600889fbe008a1f780000047800d1
:101790000800e0000d003a00a88e2000700544000b
:1017a0008004eb00580078000000e00004003200e4
:1017b000f4ff07000000e00001003d008084eb0022
:1017c0008a0f5400f7ff3a0025003700000022007e
:1017d000180060008004eb0021003200a804900093
:1017e0000f00370009015100384090000000fb0055
:1017f00089007800840207000000e00007003c0038
:10180000280090004004980060049800500c980054
:101810001890a0008084eb00110037008084440001
:1018200048019000828f5400eeff3900280090009c
:10183000400498009800780002c0200002816000f7
:1018400001003a003800900001e8a30002003200d5
:101850006004980001003700500c98008004eb00f1
:10186000090078004f0578004f04be000000060014
:10187000fc874700889fbe008a9fbe008c9fbe00e9
:101880008e1f78000006780080c5b30080cf50001e
:101890000a0032007740400080cf50000a0032003a
:1018a0006940400080cf50000b003200d0902000f3
:1018b00080bf9f00ae0020000a003700c28f2000ca
:1018c00082bf9f0006003700d390200083bf9f0097
:1018d0008e00200003003700d490200084bf9f00ba
:1018e0000e0120003c02be002c03be000605be0017
:1018f0000404be0040c6b30080cf50000300320095
:101900006540400080cf50000b003a00e00f5200cd
:10191000e08f5a00e00f5b00e08f5b0006003d00a7
:101920006000b8006011b8000404500085845800bd
:101930000605590087855900e80f5700040032005a
:1019400040002000f00f570038003a000100370037
:1019500030002000e00f5400e08f5c00e00f5d00dd
:10196000e08f5d0004003a008c1090008d01200093
:101970000100e000060032008e00e900888060006f
:101980008fba9700e5c07800f1ef9f007d0120003d
:10199000800078008100e900050033008b05d1004c
:1019a0000a85d3008984d3000884d300f9ff370067
:1019b000089ebe000a96be00120037008d06e900a0
:1019c0008e00e900848060000fb99700e2c17800c2
:1019d00082fd2f000f01410003f17e00800078009e
:1019e0008100e900050033008783d1000683d3001e
:1019f0008582d3000482d300f9ff3700049ebe0025
:101a00000696be003c02be002c03be00e00f520052
:101a1000e08f5a00e00f5b00e08f5b008b0034002a
:101a20000d00e000e5ff3c00880037000c689000e6
:101a300081c6b300814f50000b00320006003c000d
:101a40000004e00008003200e6c05000814f500062
:101a50004e003a0004003700c1c6b300814f500069
:101a60004a003a00210037000800e00004003a0074
:101a70000c1090008d0120000000e00006003200f4
:101a8000110009000e84d8000fb99700e2c0780059
:101a9000f1ef9f007d012000110009000e84d800a5
:101aa0000a003700110009000e04d8008d06e90075
:101ab0000e81b900020454008fb8970061417c0088
:101ac00081fd2f008f80400082f07e0000047800ae
:101ad0000800e000020032000d00e000f1ff3c00d1
:101ae000cfc4de00614db90025003700e00f54007f
:101af000e08f5c0004003a000c1090008d01200083
:101b00000000e000070032006171b9000800be006b
:101b1000990307008fb99700e3417800f3ef9f0026
:101b20007d0120006171b9000800be009503070027
:101b30000b0037006171b9000800be00a103070067
:101b40008d06e90000f1b900020454000fba9700b5
:101b5000e4427c0084fd2f000f02420005f27e006b
:101b60000004be00e00f5000e08f58000200320079
:101b70000d00e000efff3c004fcdde008a0578004d
:101b8000089ebe000a96be0030003700e00f5400e9
:101b9000e08f5c00e00f5d00e08f5d0004003a0024
:101ba0000c1090008d0120000000e00009003200c0
:101bb0006172b900612bb9000800be000a01be00c5
:101bc000fe0307000fba970064427800f4ef9f000d
:101bd0007d0120006172b900612bb9000800be00d0
:101be0000a01be00ee0307000d0037006172b90064
:101bf000612bb9000800be000a01be00f303070014
:101c00008d06e90000f2b900040454008fba970071
:101c100065427c0085fd2f008f82420084f27e00a9
:101c2000009ebe000296be003c04be002c05be0015
:101c3000e00f5400e08f5c00e00f5d00e08f5d007e
:101c4000020034000d00e000e8ff3c00e80f570000
:101c500010003a003c1090000038a3000d00320044
:101c6000f78f560006003e0085fd2f008f82420050
:101c7000e5c07e0000c3b30080cf500005003200f5
:101c80008d06e90002c3b30081fd2f008f80400064
:101c900082f07e0078811600420e98007c00900051
:101ca00083fd2f008f8141008d80410032fb0700b2
:101cb0004c0890008c109000810f500006003d00f1
:101cc00000805000300e98003c1090000040a100b1
:101cd000301698000f0037000100e0000d003d00b5
:101ce000bc109000f4806000f08f500009003a00b2
:101cf0002c119000ac089000810051003c0990002c
:101d000082805000008050004240a9000100340051
:101d1000300e98004f0778004f06be004f05be00fa
:101d20004f04be00cf01b10000000600889fbe0036
:101d300000047800614a80000100e00002003200e7
:101d4000010078000d003700714a8000e094200007
:101d500004003700910f5400250036000180e80090
:101d6000910090000100e000faff3a0010003700f7
:101d7000920f54001e0036000280e8001001780027
:101d80000200e000faff3a0011017800714a800079
:101d9000e094200004003700910f54001400360036
:101da0000180e80091009000828f5000faff3a0015
:101db000894a8000888f540001003100880478002f
:101dc000090078008e0007000000e00004003a00df
:101dd000888f5400050032008904d100f5ff3700d8
:101de0000918780090000700d2ff37000000eb00d0
:101df0004f04be0000000600881f78006304400006
:101e00000800a1008000eb00800f54002100360084
:101e1000e30f540001003e00480020000800780055
:101e2000c2ff07008000eb000000e0001900320054
:101e3000900078009101780064815100880f510072
:101e400003003100110190000208780007003700fc
:101e50000881400002087800910190001301980069
:101e6000100178001109140088087800100178002a
:101e70000000eb000200e00004003200920190003c
:101e80000300e000010032000280e800604a8800a0
:101e90008180e800010078004f047800000006000f
:101ea000a0fe200092003700881f780028952000af
:101eb0001804e00003003a00f9ff070020c0b30057
:101ec000004c78004f04780000000600889fbe0098
:101ed00000047800080078002afe070080047800db
:101ee000000420001800600002003200280090006a
:101ef0004d0007000000eb002004980038409000df
:101f00000004e000050035000000fb0002010700ae
:101f10000000e000010032008084eb001810900007
:101f20000000e00008003200060107000000e000a9
:101f3000010032008084eb00181090003a00070086
:101f40000000eb001014980000082000180060004a
:101f50000f003200a18e20000000eb00d10f140012
:101f600005003a0000004000c18e200000804000c3
:101f70000008eb00030037000000e800e80f500005
:101f8000f6ff3a0008007800270007000e0037002f
:101f9000000c780000c0eb00304498006002200084
:101fa0000800400020049800400498005004980065
:101fb000400c980060049800500c98007004980041
:101fc00076004400000c9800090078004f04be0021
:101fd00000000600889fbe00c88f2000f004540057
:101fe000480078000000e00001003200b7ff070061
:101ff000890f5400faff3a004f04be0000000600ab
:10200000800078000000eb000100e00005003400d3
:1020100001007800d4000700e10f400001003a0001
:102020000000eb00000006000000e0002f0032007e
:10203000c0017800e38f51002c0036000308a30094
:102040002a003a00714a80000100e00002003200dc
:10205000810f50000400310011009800704a880080
:102060001600370082007800110190000200e000a5
:1020700002003200800f5100faff3900110278008f
:1020800084824000850f500018003900808f520074
:1020900003003a008308420001007800070037007f
:1020a0000200e0000300320083014000830f510072
:1020b0000e003900120098009000980090009000e7
:1020c0000100e0000900320010014000828f500042
:1020d00006003a00c29420000009eb0010017800cd
:1020e00011084100910090001100980000000600c6
:1020f000010020000100e000080032000100800023
:102100000100e000050032008100e90001008800c4
:10211000818040000200800000b1780000000600cd
:102120003400f8000203be008202700085027200d3
:1021300002f0a60000f0a6008100e800a1018800de
:102140001500b20008003200105978000402e900be
:102150000d00320061004000fbff39003420ec002c
:1021600000002800f8ff3700101978000482e90009
:102170000500320062004000fbff39003420ec0013
:1021800000002800f8ff37003400f9000601be0007
:10219000000006000300e00007003200a5018000f7
:1021a000a101880010427800a50188000402fb000c
:1021b000820f5200110032008301e900a501800066
:1021c000a101880010427800a50188000404e00005
:1021d00008003200000278001000b00000026a001f
:1021e0004260af0000f0a0000482d2000180b00085
:1021f000e8ff37000000200001002000000006007a
:1022000000c0da00000006000a00fa00e20f5000e9
:1022100034003e00a04a8000e10f5000030032006d
:10222000e20f500011003a000c003700032220009a
:102230000300e00001003a000040da002002e20062
:10224000020035002822ef0021e2a8002342ab0063
:102250000d003a002342a8000b00370003232000a2
:102260000300e00001003a000040da003002e20022
:10227000020035003822ef0031e2a8003342ab0003
:1022800001003a003342a800820178000b003700b9
:102290003102fb00e10f500004003a002322ab00a2
:1022a000feff3a0024118800030037003322ab0000
:1022b000feff3a00a41188008301e9000300e0005a
:1022c000f3ff3a00e10f500003003a002302ab0095
:1022d000feff32000b0037003302ab00feff32007e
:1022e0000800370033002000b3bf9f00c0bf9f002d
:1022f000d1bf9f00e2bf9f006a805700c0ff070068
:102300006fb99700020078000080fa000000060014
:1023100000c0da00000006000a00fa0011002000e8
:10232000b1bf9f00c0bf9f006a805700f8ff070041
:102330004fb897000080fa000000060000c0da00e5
:10234000000006000a00fa0051002000b1bf9f0003
:10235000c0bf9f006a805700f8ff07005fb8970072
:102360000080fa0000000600889fbe00800478000c
:10237000b04a80000000e00004003a000e000700b0
:102380000084eb000000e00008003500b84a80003f
:102390000900e000050032000900440006000700c3
:1023a0000000e00001003d000084eb000800780020
:1023b0004f04be0000000600800078000100e0002d
:1023c00003003a0000002000b04a88000000050029
:1023d0000080eb0002002000828f500002003e00cf
:1023e000b14a88000000eb00000006004f89de00c3
:1023f00082017800b300370003f0a200889fbe007e
:102400008a9fbe008c1f7800be000700c500330005
:102410006450e1004f0032006420e10052003200bd
:1024200003826c0007003b000905d0000306d000c2
:10243000820f54000c065d000200390002003200d9
:1024400089017800030678008582550004003d006c
:102450000003fd008103fd008502ea008b85420038
:10246000840f720002003b0060001000e080180042
:102470006011b8000005eb007a28e1000a0039007d
:1024800006007800c75ddd00f707b20087807500a1
:102490002d003700828171000a017800610560001b
:1024a0008180d1000080d3008502e900f9ff3b0064
:1024b000060440008784480002003b0060041400ca
:1024c000e0841c000988a300070032008a817100a3
:1024d00082817100610164008904d1000884d30005
:1024e0008b05e800170037000978a30013003a00b5
:1024f0000b00e000130034008b05e90008044400e1
:1025000089844c000a4474000978a3000d003a0045
:102510000b00e000070034008b05e90008044400cc
:1025200089844c0001003a000b0020000978a300c8
:10253000f7ff32000001eb000200370082817100da
:102540000a017800870007000cf0a70001f0a00046
:102550007d0037006420e10002003a00838f6c00a8
:102560007d0033000801be000200be007600370087
:10257000889fbe008a9fbe008c1f78006100070004
:102580006800330003866c006450e10024003200d0
:102590006420e100270032006150e1002200320097
:1025a0006120e100210032008b854200eb07b10081
:1025b0000134b800003ab8000804420089844a0097
:1025c000013ab8000030b8008880400009014a0094
:1025d00004003300000040008180480002014900ef
:1025e0008b05e900c909dd0083017000010032009c
:1025f00013002000c814de004814dd004709de0087
:102600001200b200c808de00088470005500070000
:1026100001f0a1000cf0a70001f0a0004a00370073
:102620006120e1004c0032000801be000200be0043
:10263000f7ff37006150e100fcff3a004600370029
:10264000f4ff2f006d003700140020006b003700ee
:102650000001be00840007000470a70003f0a10081
:1026600003f8a30013003a006509b100100032001e
:10267000090035006928e10002003500010028004a
:102680000000050000004000818048008502e9004c
:10269000fcff3a0000000600f88f420005003500fc
:1026a0008100d1000080d3008502e800fcff3a00e1
:1026b000000006008000eb00000005006011b8007b
:1026c0007e003700881f7800030478000300e000d4
:1026d00007003d0060001000e08018006001190054
:1026e000e081190002003b0001f02d0003003700db
:1026f0007200070008f0a70001f0a0004f04780066
:10270000000006000004be00570007000003be00e2
:102710000405be000200be0053000700844f750090
:10272000000006000200be006450e1000500360013
:102730006420e100020036000968a30001003a00ad
:102740000800be000160a0004f0678004f05be00e3
:102750004f04be0000000600f0ff2f00f1ff27002d
:10276000f9ff370081002000618055000b003d001b
:102770000b00200061fe2f000100e1001d0034006d
:1027800082817100610164008904d1000884d30052
:102790000000e800faff3a007100200061006400c8
:1027a0000300700002006000090032006104440070
:1027b000e0844c000988a500050032008b05e80084
:1027c0006808e10002003a008904d1000884d300bf
:1027d000f20f20000258e10005003d00c75ddd005a
:1027e000f907b20089807500080078000000060033
:1027f0000bf827008b00780000000500889fbe00c2
:102800008a9fbe00841f7800beff07004f0078003b
:1028100011003300f0ff2f00838f6c0006003b0097
:10282000040565000a00a7000800370009f0a600ab
:102830001000200008003700820f5400838f5c00d6
:10284000030039001000200001003e0000002000bd
:1028500009f0a7000000ea004f05be004f04be00cb
:102860000000e00000000600c70ade00f107b20029
:10287000f50fb20008003200e1cf42000200320042
:102880000170a00024000500810f700001003200db
:102890000408050044000500810f700002003a00a2
:1028a000140005008502e9000000400081c04800d6
:1028b000fcff3b000170a00024000500889fbe00c3
:1028c0008a9fbe00008270000402710004827100c1
:1028d000260032000004be000200be006011b800f5
:1028e0006b092000950220000182cf000a00390008
:1028f0000541b1000082cf00070039000541b10059
:102900000982cf00040039000541b1000882cf00e0
:10291000010039000541b1000542520012003200a9
:102920000a003b0082817100610164008100d100d6
:102930000080d3008984d3000884d3008b05e8008d
:102940000442e800f7ff3a0007003700080444009b
:1029500089844c0000004800818048008b05e90014
:102960000442e900f9ff3a007eff07004f05be0070
:102970004f04be0000000600020007000400be0075
:10298000000006006022b800060220000000d0000f
:102990008180d2000482d2008582d2000000a00093
:1029a0000202520083825a000300310002024200f8
:1029b00083824a000000a1000603e900f3ff3a0009
:1029c00000000600839f68000100e00002003d0057
:1029d00060001000e08018000300e00002003d00ed
:1029e00060011100e0811900e6ff07004f00e000e0
:1029f00002003b0060001000e080180000000600ac
:102a0000889fbe008a9fbe0030044200b0844a0006
:102a100030054b0090854b006000b1000898be0067
:102a20000a90be00c10007000200310068004000ab
:102a30001008e8004f05be004f04be00000006006d
:102a4000889fbe008a9fbe003004be002005be00e5
:102a50000418540005985c0006185d0007985d0096
:102a600011002000b1000700010039008000eb00d8
:102a7000108810004f05be004f04be000000060085
:102a80001200fa00889fbe008a9fbe008c9fbe0085
:102a9000e0b79f00f1b79f0082bf9f0093bf9f00e8
:102aa0000605be000404be000000eb00d0b79f0086
:102ab000c0b79f00b0b79f00a0b79f0090b79f001e
:102ac000000678005fb19700cfb097008201410007
:102ad0003fb097000200e00004003d0098000700ae
:102ae0007e805700c6ff07000300370094000700f0
:102af0007e805700d2ff0700dfb697000d00e00090
:102b00000c0035006fb29700ffb297000fbb970023
:102b10009fbb970010002000010020006011b8004a
:102b200000027200818272000203730083837300cb
:102b3000580007000c06e80001042000810f560031
:102b4000e0ff3a000d00e00004003d000802be0076
:102b50000a03be007e805700a9ff07005fa8970008
:102b60000000e00005003a001fb29700afb29700e6
:102b70003fb39700cfb39700460007006fb09700b0
:102b8000ffb097000fb997009fb997004f06be009e
:102b90004f05be004f04be000080fa000000060092
:102ba000881f780018002000881f7800b4ff0700f5
:102bb0008f87e9004f04780000000600801feb00bb
:102bc000afff07008f87e90000000600889fbe0066
:102bd0008a9fbe003d00070007003d00400007003f
:102be000180020004500070008003d002b000700ea
:102bf0000004eb00050037000004eb003f00070075
:102c000002003d002500070018002000e4ff070037
:102c10000800e000010032003d0007004f05be0043
:102c20004f04be0000000600889fbe008a9fbe00c1
:102c30008c1f78002500070008003d0028000700d1
:102c40001c0020000820e10009a8e1000ab0e10012
:102c50000bb8e10007003d00050037000006eb005f
:102c60002600070003003d006044b8006055b8002e
:102c70000c000700d1ff07000c00e000010032004b
:102c8000230007004f0678004f05be004f04be002a
:102c90000000060008000700000006006044b800bd
:102ca0006055b8000402540085825c0006035d0094
:102cb00087835d0000000600a4b79f00b5b79f00a2
:102cc000c6b79f00d7b79f0000000600e00f500076
:102cd000e08f5800e00f5900e08f59000000060017
:102ce0006044b8006055b8000000540081805c006a
:102cf00002015d0083815d0000000600e00f5200cc
:102d0000e08f5a00e00f5b00e08f5b0000000600e0
:102d10006022b8006033b8000000520081805a0081
:102d200002015b0083815b00000006000440e100bb
:102d300005c8e10006d0e10007d8e1000000060068
:102d40004f09de0082817100b3b79f004f01de00a2
:102d50008180400082807000a1b79f008fb09700f3
:102d60004f09de00000040000200700090b79f0095
:102d70007fa897004f01de008180400082807000b4
:102d800081b79f000d0007004f3ade0000004000b1
:102d900004007000f0af9f0008000700040242002a
:102da00085824a0006034b0087834b00c2ff070061
:102db0000802be000a03be00000006002fb2970002
:102dc000bfb297004fb39700dfb397000000060033
:020000040000fa
:102dd0002564000020630000202000000020000087
:102de0005365000054200000546500006d70000021
:102df0002025000064200000632000002000000067
:102e0000200000002d000000256400006320000069
:102e1000004f000046460000200000004f4e00001a
:102e20002020000000250000647300002000000046
:102e30002564000073200000200000003e00000018
:102e4000205300006554000020540000656d000010
:102e50007020000025640000206300002020000096
:102e6000200000002020000020200000202500007d
:102e700064200000632000002020000020200000cb
:102e80002020000000200000202000002020000062
:102e90002020000020200000202000002020000032
:102ea0002020000020000000506f00007765000027
:102eb000722000002564000025250000202000006d
:102ec0002020000020200000200000002020000022
:102ed00020200000205300006c6500006570000099
:102ee0002020000020200000202000000020000002
:102ef0002020000020200000256400002063000046
:102f000020200000202000002020000000530000ae
:102f10006c6500006570000020540000656d0000c5
:102f200070200000256400002063000000200000e5
:102f30002048000069620000657200006e610000b8
:102f4000746900006f6e0000202000002000000067
:102f500020200000202000004e6f000020480000cc
:102f60006561000074200000202000002020000087
:102f700000200000202000004d610000696e00006c
:102f8000204d0000656e000075200000202000002c
:102f90002000000020200000205300007461000089
:102fa000746900006f6e000020530000657400001b
:102fb000746900000020000020200000546f000011
:102fc0006f6c0000205300006574000074690000fd
:102fd0006e67000073000000202000002020000029
:102fe0002020000042610000636b000020200000f0
:102ff0002020000020200000005300007461000029
:10300000746900006f6e00002053000065740000ba
:10301000746900006e67000073000000202000004b
:10302000204d00006178000020740000656d0000f4
:1030300070200000256400006320000000200000d4
:10304000202000004d6900006e2000007465000023
:103050006d70000020250000646300002000000067
:103060002020000020420000656500007020000064
:1030700020200000202000004f4e000020200000f3
:103080000020000020200000426500006570000064
:103090002020000020200000204f000046460000b5
:1030a00020000000205400006f6f00006c20000022
:1030b0005365000074740000696e000067730000bf
:1030c000202000000020000020200000536c0000a1
:1030d0006565000070440000656c0000202500005c
:1030e0006473000020200000002000002020000069
:1030f000536c00006565000070540000656d0000b1
:103100002025000064630000202000000020000053
:10311000202000004869000062440000656c000047
:103120006179000020250000647300002020000069
:103130000020000020200000546500006d70000099
:10314000416400006a200000202500006463000044
:10315000202000000045000073740000616300003f
:10316000696f00006e200000536f00006c64000067
:10317000616400006f000000464500004e490000f9
:10318000582d000031340000305700000056000078
:10319000203000002e3100002e3000000000000022
:020000040000fa
:1031a0000000fa00113a8000f0ff28000080600063
:1031b00000c0a000103a8800113a8000f08f2f0064
:1031c000008060000080a000103a880042e7a8005c
:1031d00042c7a8004227a9004567a900213a8000fc
:1031e000f08f2f0000806000203a88000080fa00f5
:1031f000000006000000fa00e0ff2f0060198800c0
:10320000ce22ef000000280060168800c422ef00e4
:10321000c802a900c822a900c842a900c862a90022
:10322000c882a900c8a2a900c8c2a800c8e2a80014
:10323000c902a800c922a800c982a900c9a2a90080
:10324000c9c2a900c9e2a900c002a8000080fa0012
:10325000000006000000fa0060042000103a880018
:1032600070052000103a880042c7a900613680002e
:1032700000fe2f00008060002001b300603688004f
:1032800042c7a8000080fa00000006000000fa0013
:1032900032c8bf000080fb00e40f50008a003200fb
:1032a000e40f50000c003c00e10f50002b003200f6
:1032b000e10f500003003c000000e0000f0032006e
:1032c000c9023700e20f500041003200e30f500006
:1032d0005d003200c4023700e60f50004f0132009b
:1032e000e60f5000e2003500e70f5000b301320056
:1032f000e80f50003c023200bb023700214380003f
:1033000060438000808f5000a0023600214380007f
:1033100040438000808f50009e0236002043800092
:103320000000e9002043880020438000801f7800cf
:10333000806e2900801f7800809320007ef50700b2
:10334000e487570011c0b300b0c0b300f309070011
:10335000809320007a0a0700a302370021438000ef
:1033600060438000808f50008c0236002143800033
:1033700040438000808f50008a0236002043800046
:103380000000e9002043880020438000801f78006f
:10339000f06e2900801f78008093200066f50700fa
:1033a000e487570011c0b30010c0b300db09070069
:1033b00080932000620a070000802400811e200004
:1033c0002ff40700808d22000000010086023700e4
:1033d0003368ef002143800060438000808f5000fd
:1033e000720236002143800040438000808f5000ed
:1033f00070023600204380000000e900204388006e
:1034000020438000801f7800f06e2900801f780024
:103410008093200048f50700e487570011c0b300ef
:1034200010c0b300bd09070080932000440a0700c4
:1034300000802400811e200011f40700808d2200ee
:10344000000001006802370070c8bf00e14f500063
:103450000d003a0020c0b30070e8b70021c0b300ef
:1034600010c0b300ad09070000702900340a07003e
:1034700031c0b30010c0b300a809070020702900b4
:103480002f0a07005802370070c8bf00e24f5000f3
:103490004a023a0030c0b30070e8b70031c0b30050
:1034a00010c0b3009d09070000702900240a07001e
:1034b00041c0b30010c0b300980907002070290074
:1034c0001f0a07004802370071c8bf00e14f5000d3
:1034d00020003a003dc8bf00e14f500010003a0004
:1034e000304380000000e9003043880021c0b30071
:1034f000d0c0b3008909070030438000801f7800e6
:1035000040702900801f7800809320000af5070092
:10351000e487570080932000090a07003202370031
:1035200020c0b30071e8b70021c0b30010c0b300e1
:103530007a09070000702900010a070031c0b300b2
:1035400010c0b3007509070020702900fc090700ae
:103550002502370071c8bf00e24f500020003a003a
:103560003ec8bf00e14f500010003a0040438000c9
:103570000000e9004043880031c0b300d0c0b30070
:103580006609070040438000801f780040702900d2
:10359000801f780080932000e7f40700e48757003d
:1035a00080932000e60907000f02370030c0b30007
:1035b00071e8b70031c0b30010c0b300570907006d
:1035c00000702900de09070041c0b30010c0b3003d
:1035d0005209070020702900d909070002023700ac
:1035e00071c8bf00e34f5000f6013a003fc8bf006a
:1035f000e14f500012003a00a0418000e10f50005e
:1036000007003a003428ef0041c0b300d0c0b30037
:103610004209070090702900c9090700f20137002c
:1036200010002000a041880041c0b300d0c0b3000a
:103630003a090700e0702900c1090700ea013700d4
:1036400050c0b30032e8b70020c0b3003ae8b7007a
:10365000e09f22000000010031c0b30010c0b300a1
:103660002e09070020702900b5090700de01370088
:103670003ac8bf000004e00020003a0040c8bf0084
:10368000e14f500010003a00304380000000e90094
:103690003043880011c0b300d0c0b3001f09070039
:1036a00030438000801f780040702900801f780020
:1036b00080932000a0f40700e48757008093200047
:1036c0009f090700c801370010c0b3003ae8b700ef
:1036d00011c0b30010c0b30010090700007029002a
:1036e0009709070021c0b30010c0b3000b09070001
:1036f0002070290092090700bb0137003ac8bf00bb
:10370000e14f500020003a0041c8bf00e14f500097
:1037100010003a00404380000000e9004043880068
:1037200021c0b300d0c0b300fc08070040438000b4
:10373000801f780040702900801f7800809320004f
:103740007df40700e4875700809320007c09070080
:10375000a501370020c0b3003ae8b70021c0b3008c
:1037600010c0b300ed0807000070290074090700bd
:1037700031c0b30010c0b300e80807002070290072
:103780006f090700980137003ac8bf00e24f5000a8
:103790008e013a0042c8bf00e14f500012003a00cb
:1037a000a0418000e10f500007003a003428ef00ec
:1037b00031c0b300d0c0b300d80807009070290012
:1037c0005f0907008801370010002000a041880031
:1037d00031c0b300d0c0b300d0080700e0702900aa
:1037e000570907008001370030c0b3003ae8b7003e
:1037f00031c0b30010c0b300c80807000070290032
:103800004f09070041c0b30010c0b300c308070050
:10381000207029004a0907007301370072c8bf00f1
:10382000e14f500020003a0043c8bf00e14f500074
:1038300010003a00504380000000e9005043880027
:1038400021c0b300d0c0b300b408070050438000cb
:10385000801f780030712900801f7800809320003d
:1038600035f40700e48757008093200034090700ef
:103870005d01370020c0b30072e8b70021c0b3007b
:1038800010c0b300a5080700007029002c0907002c
:1038900031c0b30010c0b300a00807002070290099
:1038a000270907005001370072c8bf00e24f5000df
:1038b00020003a0044c8bf00e14f500010003a0019
:1038c000604380000000e9006043880031c0b3001d
:1038d000d0c0b3009108070060438000801f7800cb
:1038e00040702900801f78008093200012f40700a8
:1038f000e487570080932000110907003a01370040
:1039000030c0b30072e8b70031c0b30010c0b300dc
:1039100082080700007029000909070041c0b300b0
:1039200010c0b3007d0807002070290004090700bb
:103930002d01370072c8bf00e34f500025013a0047
:1039400045c8bf00e14f500010003a0070438000ae
:103950000000e9007043880041c0b300d0c0b3004c
:103960006e08070070438000801f78008071290076
:10397000801f780080932000eff30700e487570052
:1039800080932000ee0807001701370070c0b300d5
:1039900032e8b70020c0b3003be8b700c0aa22005d
:1039a0000000010031c0b30010c0b3005b08070085
:1039b00020702900e20807000b0137003bc8bf0058
:1039c0000004e00020003a0046c8bf00e14f50006c
:1039d00010003a00504380000000e9005043880086
:1039e00011c0b300d0c0b3004c08070050438000a2
:1039f000801f780030712900801f7800809320009c
:103a0000cdf30700e487570080932000cc0807001f
:103a1000f500370010c0b3003be8b70011c0b30099
:103a200010c0b3003d08070000702900c40807005b
:103a300021c0b30010c0b30038080700207029006f
:103a4000bf080700e80037003bc8bf00e14f500047
:103a500020003a0047c8bf00e14f500010003a0074
:103a6000604380000000e9006043880021c0b3008b
:103a7000d0c0b3002908070060438000801f780091
:103a800040702900801f780080932000aaf307006f
:103a9000e487570080932000a9080700d200370070
:103aa00020c0b3003be8b70021c0b30010c0b30092
:103ab0001a08070000702900a108070031c0b300f0
:103ac00010c0b30015080700207029009c080700eb
:103ad000c50037003bc8bf00e24f500020003a004d
:103ae00048c8bf00e14f500010003a00704380000a
:103af0000000e9007043880031c0b300d0c0b300bb
:103b00000608070070438000801f7800807129003c
:103b1000801f78008093200087f30700e487570018
:103b20008093200086080700af00370030c0b30044
:103b30003be8b70031c0b30010c0b300f70707007f
:103b4000007029007e08070041c0b30010c0b30018
:103b5000f20707002070290079080700a20037004b
:103b60003bc8bf00e34f50009c003a0049c8bf006b
:103b7000e14f500010003a00b04180000000e90021
:103b8000b041880041c0b300d0c0b300e3070700d4
:103b9000b0418000801f780040702900801f7800ad
:103ba0008093200064f30700e4875700809320008f
:103bb000630807008c00370080c0b30032e8b7000c
:103bc00020c0b3003ce8b70020b122000000010093
:103bd00031c0b30010c0b300d00707002070290027
:103be00057080700800037003cc8bf000004e00011
:103bf00020003a004ac8bf00e14f500010003a00d0
:103c0000604380000000e9006043880011c0b300f9
:103c1000d0c0b300c107070060438000801f780058
:103c200040702900801f78008093200042f3070035
:103c3000e487570080932000410807006a0037009e
:103c400010c0b3003ce8b70011c0b30010c0b3000f
:103c5000b2070700007029003908070021c0b3002f
:103c600010c0b300ad07070020702900340807001a
:103c70005d0037003cc8bf00e14f500020003a0013
:103c80004bc8bf00e14f500010003a007043800065
:103c90000000e9007043880021c0b300d0c0b30029
:103ca0009e07070070438000801f78008071290004
:103cb000801f7800809320001ff30700e4875700df
:103cc000809320001e0807004700370020c0b30083
:103cd0003ce8b70021c0b30010c0b3008f07070055
:103ce000007029001608070031c0b30010c0b300ef
:103cf0008a07070020702900110807003a003700e2
:103d00003cc8bf00e24f500036003a004cc8bf002c
:103d1000e14f500010003a00b04180000000e9007f
:103d2000b041880031c0b300d0c0b3007b070700aa
:103d3000b0418000801f780040702900801f78000b
:103d400080932000fcf20700e48757008093200056
:103d5000fb0707002400370030c0b3003ce8b70081
:103d600031c0b30010c0b3006c0707000070290019
:103d7000f307070041c0b30010c0b3006707070096
:103d800020702900ee070700170037000000000030
:103d9000150037000000000013003700000000008d
:103da00011003700000000000f0037000000000085
:103db0000d003700000000000b003700000000007d
:103dc0000900370000000000070037000000000075
:103dd000050037000000000003003700000000006d
:103de00001003700000000000080fa00000006001b
:103df0000000fa0032c8bf000080fb00e40f500052
:103e00006a003200e40f50000c003c00e10f50004b
:103e10001f003200e10f500003003c000000e000f2
:103e20000f003200da013700e20f500024003200a8
:103e3000e30f50002e003200d5013700e60f50008e
:103e4000e7003200e60f500097003500e70f500002
:103e500022013200e80f500074013200cc0137001b
:103e600030c0b30032e8b70010c0b30070e8b7004c
:103e7000a09722000000010021c0b30010c0b300d1
:103e80002607070020702900ad070700c001370092
:103e900030c0b30032e8b70010c0b30070e8b7001c
:103ea000a09722000000010021c0b30010c0b300a1
:103eb0001a07070020702900a1070700b401370086
:103ec00030c0b30032e8b70010c0b30070e8b700ec
:103ed000a09722000000010021c0b30010c0b30071
:103ee0000e0707002070290095070700a80137007a
:103ef00070c8bf00e14f50000c003a0040c0b30052
:103f000032e8b70010c0b30071e8b700809a220011
:103f10000000010021c0b30010c0b300ff0607007d
:103f200020702900860707009901370070c8bf007c
:103f3000e24f50000c003a0060c0b30032e8b70016
:103f400010c0b30072e8b70040a5220000000100d5
:103f500021c0b30010c0b300f00607002070290094
:103f6000770707008a01370070c8bf00e34f500091
:103f70007c013a0051168000002020000080600083
:103f80000000e0000500320010c0b30032e8b700c6
:103f9000808d2200000001007d0137003268ef00b3
:103fa00020872200000001007901370071c8bf009e
:103fb000e14f500012003a003dc8bf00e14f5000f1
:103fc00007003a0021c0b30020c0b300d3060700a9
:103fd000007029005a0707003d68ef006c013700a8
:103fe00021c0b30020c0b300cc060700e071290057
:103ff0005307070010c0b3003de8b7006401370065
:1040000071c8bf00e24f500012003a003ec8bf0026
:10401000e14f500007003a0031c0b30020c0b300a8
:10402000be06070000702900450707003e68ef0044
:104030005701370031c0b30020c0b300b7060700f6
:10404000e07129003e07070010c0b3003ee8b7004a
:104050004f01370071c8bf00e34f500043013a00e1
:104060003fc8bf00e14f500007003a0041c0b30015
:1040700020c0b300a9060700007029003007070020
:104080003f68ef004201370041c0b30020c0b300d9
:10409000a2060700e07129002907070010c0b3003d
:1040a0003fe8b7003a0137003ac8bf000004e0001b
:1040b00012003a0040c8bf00e14f500007003a002c
:1040c00011c0b30020c0b30094060700007029009f
:1040d0001b0707004068ef002d01370011c0b30037
:1040e00020c0b3008d060700e07129001407070007
:1040f00010c0b30040e8b700250137003ac8bf0040
:10410000e14f500012003a0041c8bf00e14f50009b
:1041100007003a0021c0b30020c0b3007f060700ab
:1041200000702900060707004168ef0018013700fa
:1041300021c0b30020c0b30078060700e071290059
:10414000ff06070010c0b30041e8b70010013700b8
:104150003ac8bf00e24f500012003a0042c8bf0008
:10416000e14f500007003a0031c0b30020c0b30057
:104170006a06070000702900f10607004268ef0098
:104180000301370031c0b30020c0b300630607004d
:10419000e0712900ea06070010c0b30042e8b7004a
:1041a000fb0037003ac8bf00e34f5000f1003a006f
:1041b00030c0b30032e8b70010c0b30070e8b700f9
:1041c000a09722000000010021c0b30010c0b3007e
:1041d0005206070020702900d9060700ec003700be
:1041e00072c8bf00e14f500012003a0043c8bf0040
:1041f000e14f500007003a0021c0b30020c0b300d7
:104200004606070000702900cd0607004368ef004e
:10421000df00370021c0b30020c0b3003f06070015
:10422000e0712900c606070010c0b30043e8b700dc
:10423000d700370072c8bf00e24f500012003a00aa
:1042400044c8bf00e14f500007003a0031c0b3003e
:1042500020c0b3003106070000702900b80607002f
:104260004468ef00ca00370031c0b30020c0b3007b
:104270002a060700e0712900b106070010c0b3004c
:1042800044e8b700c200370072c8bf00e34f5000d7
:10429000ba003a0045c8bf00e14f500007003a009d
:1042a00041c0b30020c0b3001c0607000070290005
:1042b000a30607004568ef00b500370041c0b30012
:1042c00020c0b30015060700e07129009c06070016
:1042d00010c0b30045e8b700ad0037003bc8bf00d1
:1042e0000004e00012003a0046c8bf00e14f500051
:1042f00007003a0011c0b30020c0b3000706070052
:10430000007029008e0607004668ef00a000370005
:1043100011c0b30020c0b30000060700e0712900ff
:104320008706070010c0b30046e8b70098003700c2
:104330003bc8bf00e14f500012003a0047c8bf0021
:10434000e14f500007003a0021c0b30020c0b30085
:10435000f205070000702900790607004768ef00a2
:104360008b00370021c0b30020c0b300eb0507006d
:10437000e07129007206070010c0b30047e8b700db
:10438000830037003bc8bf00e24f500012003a00e4
:1043900048c8bf00e14f500007003a0031c0b300e9
:1043a00020c0b300dd050700007029006406070087
:1043b0004868ef007600370031c0b30020c0b3007a
:1043c000d6050700e07129005d06070010c0b300a4
:1043d00048e8b7006e0037003bc8bf00e34f50000d
:1043e00068003a0049c8bf00e14f500007003a009a
:1043f00041c0b30020c0b300c80507000070290009
:104400004f0607004968ef006100370041c0b30064
:1044100020c0b300c1050700e0712900480607006d
:1044200010c0b30049e8b700590037003cc8bf00ce
:104430000004e00012003a004ac8bf00e14f5000fb
:1044400007003a0011c0b30020c0b300b305070055
:10445000007029003a0607004a68ef004c00370058
:1044600011c0b30020c0b300ac050700e071290003
:104470003306070010c0b3004ae8b7004400370015
:104480003cc8bf00e14f500012003a004bc8bf00cb
:10449000e14f500007003a0021c0b30020c0b30034
:1044a0009e05070000702900250607004b68ef00f5
:1044b0003700370021c0b30020c0b30097050700c4
:1044c000e07129001e06070010c0b3004be8b700da
:1044d0002f0037003cc8bf00e24f500012003a00e6
:1044e0004cc8bf00e14f500007003a0031c0b30094
:1044f00020c0b300890507000070290010060700de
:104500004c68ef002200370031c0b30020c0b30078
:1045100082050700e07129000906070010c0b300fa
:104520004ce8b7001a0037003cc8bf00e34f50000a
:1045300016003a0030c0b30032e8b70020c0b30024
:1045400070e8b700a09722000000010031c0b3005e
:1045500010c0b3007105070020702900f80507009e
:104560000b003700000000000900370000000000c9
:1045700007003700000000000500370000000000c1
:1045800003003700000000000100370000000000b9
:104590000080fa00000006000000fa0032c8bf00e8
:1045a0000080fb00e40f500081003200e40f500057
:1045b0000c003c00e10f500027003200e10f5000da
:1045c00003003c000000e0000f003200c30237008f
:1045d000e20f500039003200e30f5000510032006a
:1045e000be023700e60f500048013200e60f5000cf
:1045f000cd003500e70f5000a0013200e80f500059
:1046000028023200b5023700214380003043800089
:10461000808f50009a023100204380000000e800a3
:104620002043880020438000801f7800806e29008e
:10463000801f780080932000bff00700e4875700b8
:1046400011c0b300b0c0b300340507008093200050
:10465000bb050700a10237002143800030438000e2
:10466000808f500088023100204380000000e80065
:104670002043880020438000801f7800f06e2900ce
:10468000801f780080932000abf00700e48757007c
:1046900011c0b30010c0b3002005070080932000b4
:1046a000a705070000802400811e200074ef07008a
:1046b000808d220000000100880237003368ef007f
:1046c0002143800030438000808f5000700236000c
:1046d000204380000000e800204388002043800041
:1046e000801f7800f06e2900801f780080932000e2
:1046f00091f00700e487570011c0b30010c0b30069
:1047000006050700809320008d0507000080240027
:10471000811e20005aef0700808d2200000001005a
:104720006e02370070c8bf00e14f50005a023200dd
:1047300070c8bf00e24f50000d003a0010c0b30037
:1047400070e8b70031c0b30010c0b300f304070035
:10475000007029007a05070021c0b30010c0b30023
:10476000ee04070020702900750507005b02370082
:1047700070c8bf00e34f500049023a0020c0b300a8
:1047800070e8b70041c0b30010c0b300e3040700f5
:10479000007029006a05070031c0b30010c0b300e3
:1047a000de04070020702900650507004b02370072
:1047b00071c8bf00e14f500013003a003dc8bf0070
:1047c000e14f500038023a00304380000000e8001a
:1047d0003043880021c0b300d0c0b300cf0407002d
:1047e00030438000801f780040702900801f7800cf
:1047f0008093200050f00700e4875700809320004a
:104800004f0507003502370071c8bf00e24f500066
:1048100020003a003ec8bf00e14f500010003a00af
:10482000404380000000e8004043880031c0b300ee
:10483000d0c0b300b904070040438000801f780057
:1048400040702900801f7800809320003af0070014
:10485000e487570080932000390507001f023700c6
:1048600010c0b30071e8b70031c0b30010c0b3008e
:10487000aa040700007029003105070021c0b30019
:1048800010c0b300a5040700207029002c05070004
:104890001202370071c8bf00e34f500004023a0013
:1048a0003fc8bf00e14f500012003a00a041800015
:1048b000e10f500007003a003428ef0041c0b30078
:1048c000d0c0b30095040700907029001c050700b4
:1048d0000202370010002000a041880041c0b30050
:1048e000d0c0b3008d040700e07029001405070054
:1048f000fa01370020c0b30071e8b70041c0b3002f
:1049000010c0b30085040700007029000c050700e3
:1049100031c0b30010c0b30080040700207029002c
:1049200007050700ed0137003ac8bf000004e000aa
:104930001f003a0040c8bf00e14f500010003a008d
:10494000304380000000e8003043880011c0b3000d
:10495000d0c0b3007104070030438000801f78008e
:1049600040702900801f780080932000f2ef07003c
:10497000e487570080932000f1040700d701370037
:1049800040c0b30032e8b70010c0b30071e8b70010
:10499000809a22000000010021c0b30010c0b300c3
:1049a0005e04070020702900e5040700cb013700f2
:1049b0003ac8bf00e14f50001f003a0041c8bf0095
:1049c000e14f500010003a00404380000000e80032
:1049d0004043880021c0b300d0c0b3004f0407009b
:1049e00040438000801f780040702900801f7800bd
:1049f00080932000d0ef0700e487570080932000c9
:104a0000cf040700b50137003a68ef0021c0b300ba
:104a100010c0b3004104070000702900c80407005b
:104a200011c0b30010c0b3003c040700207029007f
:104a3000c3040700a90137003ac8bf00e24f500085
:104a400022003a0042c8bf00e14f500012003a0075
:104a5000a0418000e10f500007003a003428ef0029
:104a600031c0b300d0c0b3002c04070090702900ff
:104a7000b30407009901370010002000a04188000e
:104a800031c0b300d0c0b30024040700e070290097
:104a9000ab0407009101370010c0b3003ae8b7003b
:104aa00031c0b30010c0b3001c040700007029001f
:104ab000a304070021c0b30010c0b300170407000f
:104ac000207029009e040700840137003ac8bf0007
:104ad000e34f500078013a0020c0b3003ae8b70035
:104ae00041c0b30010c0b3000c04070000702900df
:104af0009304070031c0b30010c0b30007040700df
:104b0000207029008e0407007401370072c8bf00ae
:104b1000e14f500013003a0043c8bf00e14f50007e
:104b200067013a00504380000000e80050438800cd
:104b300021c0b300d0c0b300f80307005043800089
:104b4000801f780030712900801f7800809320003a
:104b500079ef0700e487570080932000780407006e
:104b60005e01370072c8bf00e24f500020003a00db
:104b700044c8bf00e14f500010003a00604380007d
:104b80000000e8006043880031c0b300d0c0b3002b
:104b9000e203070060438000801f78004070290016
:104ba000801f78008093200063ef0700e4875700a0
:104bb00080932000620407004801370010c0b30052
:104bc00072e8b70031c0b30010c0b300d3030700d0
:104bd000007029005a04070021c0b30010c0b300c0
:104be000ce03070020702900550407003b01370061
:104bf00072c8bf00e34f500033013a0045c8bf0000
:104c0000e14f500010003a00704380000000e800bf
:104c10007043880041c0b300d0c0b300bf03070099
:104c200070438000801f780080712900801f780009
:104c30008093200040ef0700e48757008093200016
:104c40003f0407002501370020c0b30072e8b70019
:104c500041c0b30010c0b300b003070000702900ca
:104c60003704070031c0b30010c0b300ab03070026
:104c70002070290032040700180137003bc8bf002c
:104c80000004e0001f003a0046c8bf00e14f50009a
:104c900010003a00504380000000e80050438800b4
:104ca00011c0b300d0c0b3009c0307005043800084
:104cb000801f780030712900801f780080932000c9
:104cc0001def0700e4875700809320001c040700b5
:104cd0000201370060c0b30032e8b70010c0b30073
:104ce00072e8b70040a522000000010021c0b30017
:104cf00010c0b300890307002070290010040700ca
:104d0000f60037003bc8bf00e14f50001f003a00db
:104d100047c8bf00e14f500010003a0060438000d8
:104d20000000e8006043880021c0b300d0c0b30099
:104d30007a03070060438000801f780030712900eb
:104d4000801f780080932000fbee0700e487570067
:104d500080932000fa030700e00037003b68ef0073
:104d600021c0b30010c0b3006c030700007029001d
:104d7000f303070011c0b30010c0b30067030700be
:104d800020702900ee030700d40037003bc8bf00a5
:104d9000e24f500020003a0048c8bf00e14f5000e9
:104da00010003a00704380000000e8007043880063
:104db00031c0b300d0c0b300580307007043800077
:104dc000801f780080712900801f78008093200068
:104dd000d9ee0700e487570080932000d80307002e
:104de000be00370010c0b3003be8b70031c0b300cd
:104df00010c0b3004903070000702900d00307006a
:104e000021c0b30010c0b300440307002070290084
:104e1000cb030700b10037003bc8bf00e34f500091
:104e2000ab003a0049c8bf00e14f500010003a0003
:104e3000b04180000000e800b041880041c0b300ec
:104e4000d0c0b30035030700b0418000801f780058
:104e500040702900801f780080932000b6ee070084
:104e6000e487570080932000b50307009b003700bc
:104e700020c0b3003be8b70041c0b30010c0b3008e
:104e80002603070000702900ad03070031c0b300fe
:104e900010c0b3002103070020702900a8030700f9
:104ea0008e0037003cc8bf000004e0001f003a003d
:104eb0004ac8bf00e14f500010003a006043800034
:104ec0000000e8006043880011c0b300d0c0b30008
:104ed0001203070060438000801f780040702900a3
:104ee000801f78008093200093ee0700e48757002e
:104ef00080932000920307007800370070c0b30051
:104f000032e8b70010c0b3003be8b700c0aa2200e7
:104f10000000010021c0b30010c0b300ff02070071
:104f200020702900860307006c0037003cc8bf00d2
:104f3000e14f50001f003a004bc8bf00e14f500046
:104f400010003a00704380000000e80070438800c1
:104f500021c0b300d0c0b300f0020700704380004e
:104f6000801f780080712900801f780080932000c6
:104f700071ee0700e487570080932000700307005c
:104f8000560037003c68ef0021c0b30010c0b300ea
:104f9000e2020700007029006903070011c0b30096
:104fa00010c0b300dd020700207029006403070071
:104fb0004a0037003cc8bf00e24f500020003a00d2
:104fc0004cc8bf00e14f500010003a00b0418000d3
:104fd0000000e800b041880031c0b300d0c0b30089
:104fe000ce020700b0418000801f78004070290089
:104ff000801f7800809320004fee0700e487570061
:10500000809320004e0307003400370010c0b30027
:105010003ce8b70031c0b30010c0b300bf020700c6
:10502000007029004603070021c0b30010c0b30080
:10503000ba0207002070290041030700270037004b
:105040003cc8bf00e34f500023003a0020c0b3002b
:105050003ce8b70041c0b30010c0b300af02070086
:10506000007029003603070031c0b30010c0b30040
:10507000aa0207002070290031030700170037003b
:10508000000000001500370000000000130037008a
:105090000000000011003700000000000f00370082
:1050a000000000000d003700000000000b0037007a
:1050b0000000000009003700000000000700370072
:1050c000000000000500370000000000030037006a
:1050d0000000000001003700000000000080fa001e
:1050e000000006000000fa0020438000801f7800c6
:1050f00000722900801f7800809320000eee0700c8
:10510000e487570011c0b30010c0b300830207004a
:10511000809320000a03070021c0b30010c0b30031
:105120007e02070010438000801f78002073290052
:10513000801f780080932000ffed0700e487570070
:1051400080932000fe02070031c0b30010c0b300fe
:105150007202070010438000801f7800307429001d
:10516000801f780080932000f3ed0700e48757004c
:1051700080932000f202070041c0b30010c0b300ca
:105180006602070000052000801f78004075290096
:10519000801f780080932000e7ed0700e487570028
:1051a00080932000e60207000080fa00000006005d
:1051b0000000fa0011c0b30010c0b300570207008e
:1051c00060762900de02070021c0b30010c0b300e2
:1051d0005202070010438000801f7800707729007a
:1051e000801f780080932000d3ed0700e4875700ec
:1051f00080932000d202070031c0b30010c0b3007a
:105200004602070010438000801f78003074290098
:10521000801f780080932000c7ed0700e4875700c7
:1052200080932000c602070041c0b30010c0b30045
:105230003a02070060438000801f780070782900e0
:10524000801f780080932000bbed0700e4875700a3
:1052500080932000ba0207000080fa0000000600d8
:105260000000fa0011c0b30010c0b3002b02070009
:1052700070792900b202070021c0b30010c0b3004a
:105280002602070010438000801f780070772900f5
:10529000801f780080932000a7ed0700e487570067
:1052a00080932000a602070031c0b30010c0b300f5
:1052b0001a02070010438000801f78003074290014
:1052c000801f7800809320009bed0700e487570043
:1052d000809320009a02070041c0b30010c0b300c1
:1052e0000e020700807a2900950207000080fa006c
:1052f000000006000000fa0011c0b30010c0b300a7
:1053000006020700907b29008d02070021c0b30030
:1053100010c0b30001020700a07c2900880207002a
:1053200031c0b30010c0b300fc010700b07d2900fc
:105330008302070041c0b30010c0b300f7010700ab
:10534000c07e29007e0207000080fa0000000600ef
:105350000000fa0011c0b30010c0b300ef01070055
:10536000d07f29007602070021c0b30010c0b3002f
:10537000ea01070030438000801f7800e0802900a8
:10538000801f7800809320006bed0700e4875700b2
:10539000809320006a02070031c0b30010c0b30040
:1053a000de01070040438000801f7800f081290063
:1053b000801f7800809320005fed0700e48757008e
:1053c000809320005e02070041c0b30010c0b3000c
:1053d000d2010700a0418000e10f500003003a0015
:1053e00000832900560207000200370010842900bc
:1053f000530207000080fa00000006000000fa00d7
:1054000011c0b30010c0b300c401070030438000d6
:10541000801f7800e0802900801f780080932000a2
:1054200045ed0700e4875700809320004402070001
:1054300021c0b30010c0b300b80107004043800092
:10544000801f7800f0812900801f78008093200061
:1054500039ed0700e48757008093200038020700e9
:1054600031c0b30010c0b300ac010700a041800000
:10547000e10f500003003a000083290030020700ca
:1054800002003700108429002d02070041c0b3003c
:1054900010c0b300a1010700c07e29002802070048
:1054a0000080fa00000006000000fa0011c0b300fe
:1054b00010c0b300990107002085290020020700d1
:1054c00021c0b30010c0b300940107005043800016
:1054d000801f780030862900801f7800809320008c
:1054e00015ed0700e48757008093200014020700a1
:1054f00031c0b30010c0b3008801070060438000d2
:10550000801f780050872900801f7800809320003a
:1055100009ed0700e4875700809320000802070088
:1055200041c0b30010c0b3007c010700704380008d
:10553000801f780070882900801f780080932000e9
:10554000fdec0700e487570080932000fc01070072
:105550000080fa00000006000000fa0011c0b3004d
:1055600010c0b3006d01070050438000801f780019
:1055700030862900801f780080932000eeec070021
:10558000e487570080932000ed01070021c0b3009d
:1055900010c0b3006101070060438000801f7800e5
:1055a00050872900801f780080932000e2ec0700dc
:1055b000e487570080932000e101070031c0b30069
:1055c00010c0b3005501070070438000801f7800b1
:1055d00070882900801f780080932000d6ec070097
:1055e000e487570080932000d501070041c0b30035
:1055f00010c0b3004901070000052000801f78009b
:1056000090892900801f780080932000caec070051
:10561000e487570080932000c90107000080fa004a
:10562000000006000000fa0011c0b30010c0b30073
:105630003a01070060438000801f780050872900ee
:10564000801f780080932000bbec0700e4875700a0
:1056500080932000ba01070021c0b30010c0b3003e
:105660002e01070070438000801f78007088290099
